:1000000045C0000060C000005EC000005CC0000091
:100010005AC0000058C0000056C0000054C0000084
:1000200052C0000050C000004EC000004CC0000094
:100030004AC0000048C0000046C0000044C00000A4
:1000400042C0000040C0000002C100003CC00000EF
:100050003AC0000038C0000036C0000034C00000C4
:1000600032C0000030C000002EC000002CC00000D4
:100070002AC0000028C0000026C0000024C00000E4
:1000800022C0000020C000001EC0000011241FBEBE
:10009000CFEFD0E1DEBFCDBF11E0A0E0B1E0EEE0F8
:1000A000F3E000E00BBF02C007900D92A030B10753
:1000B000D9F722E0A0E0B1E001C01D92A538B20757
:1000C000E1F71CD122C19CCFC19A000000000000C2
:1000D00000000000C1980895C19A000000000000CF
:1000E0000000000000000000000000000000000010
:1000F000C1980895C1988FEE90E00197F1F700C084
:1001000000000895DC01129680E090E02C91FD0142
:100110003197308131974081FC01FF27BF01660F85
:10012000771FE60FF71FE050FF4F40833183228394
:10013000019613968034910549F70895AF92BF92C6
:10014000CF92DF92EF92FF920F931F93CF93689419
:10015000AA24A3F8B12CC0E8C82ED12C7601EE0C4D
:10016000FF1CC7018C0D9D1D9C012F5F3E4F790127
:100170008601F70190819C239C1302C0ADDF01C072
:10018000A3DFC695F1E0AF1AB10891F76894EE24A9
:10019000E3F8F12CC0E86801CC0CDD1CC601800F2F
:1001A000911F9C0120503F4F6901F60180818C23F3
:1001B0008C1302C091DF01C087DFC695F1E0EF1A12
:1001C000F10899F76894EE24E3F8F12CC0E8C8012F
:1001D000880F991F080F191F0E5F1E4FF8018081AD
:1001E0008C238C1302C078DF01C06EDFC695F1E06E
:1001F000EF1AF10899F7CF911F910F91FF90EF90AF
:10020000DF90CF90BF90AF9008950F931F93CF933F
:10021000DF93181619064CF48C01C0E0D0E08C2F47
:100220008DDF2196C017D107D1F7DF91CF911F91B4
:100230000F91089582E087BB1BB888E98AB986E0F0
:10024000809395001092900087E689B908951F92D7
:100250000F920FB60F9211240BB60F922F933F936C
:100260004F935F936F937F938F939F93AF93BF93BE
:10027000EF93FF93E091C00181E08E0F8093C00166
:100280009CB1F0E0EF57FD4F9083843021F5E09171
:100290008402E03431F481EC91E034DF1092840286
:1002A00014C0A1E8B2E012968C91129711969C911D
:1002B0001197F0E09F01220F331FE20FF31FE05070
:1002C000FF4F2C912083918382831092C00112DF13
:1002D00080E490E09ADFFF91EF91BF91AF919F9101
:1002E0008F917F916F915F914F913F912F910F90DF
:1002F0000BBE0F900FBE0F901F9018959BDFFADE7C
:0E03000080E490E082DF7894FFCFF894FFCF86
:00000001FF
